:100000000C9450000C946B000C946B000C946B00DF
:100010000C946B000C946B000C946B000C946B00B4
:100020000C946B000C946B000C946B000C946B00A4
:100030000C946B000C946B000C946B000C946B0094
:100040000C946B000C946B000C946B000C946B0084
:100050000C946B000C946B000C946B000C946B0074
:100060000C946B000C946B0002040E010F110F0036
:1000700002040E111F100E000204000C04040E00F6
:1000800002040E1111110E000A000E1111110E00C2
:10009000050A0E1111110E000204111111130D00A9
:1000A00011241FBECFEFCDBF12E0A0E0B1E0E6E823
:1000B000F1E102C005900D92AC31B107D9F712E021
:1000C000ACE1B2E001C01D92AC31B107E1F70E9492
:1000D0006D000C94C2080C940000CF92DF92EF9256
:1000E000FF920F931F93CF93DF930E9437020E94DA
:1000F000AB0163E081E00E942A0180E091E00E9470
:10010000390186E0C82E81E0D82ECFE0D1E00E94F0
:100110003F027B018C0160E080E00E942A01C60161
:100120000E94390160E080E00E942A01C801B70105
:100130000E946E05882777FD8095982F0E944701C1
:10014000CE010E94390120E030E040E251E4C801D4
:10015000B7010E9439040E946E05DC01CB016AE000
:1001600070E00E943B08AA2797FDA095BA2FBC011A
:10017000CD010E94470120E137E280E991E001973B
:10018000F1F721503040C9F7C2CF282F84FF02C0B9
:100190005B9A01C05B9825FF02C05A9A01C05A9829
:1001A00026FF02C0599A01C0599887FF02C0589A89
:1001B00001C058985C9A85E0982F9A95F1F75C9861
:1001C0008A95F1F70895FF920F931F93F82E6623F7
:1001D00011F05F9801C05F9A8F2D0E94C50000E961
:1001E00011E0C8010197F1F78F2D8295807F0E9461
:1001F000C500C8010197F1F71F910F91FF90089575
:100200000F931F93CF93DF938C01862F6830E8F410
:10021000880F880F880F61E080640E94E30080E20D
:100220009EE40197F1F7C0E0D0E0FE01E00FF11F7E
:10023000E49160E08E2F0E94E30080E29EE401974B
:10024000F1F72196C830D10581F7DF91CF911F9149
:100250000F910895962F823058F4603148F49068D9
:100260008295880F880F807C61E0892B0E94E300D3
:100270000895CF93DF93EC0104C0219660E00E94C3
:10028000E30088818823C9F7DF91CF910895AF9269
:10029000BF92CF92DF92EF92FF920F931F93CF9373
:1002A000DF935B016C01611571058105910529F4EE
:1002B00060E080E30E94E30043C097FF0CC0D0944D
:1002C000C094B094A094A11CB11CC11CD11C81E1AC
:1002D00091E00E943901C1E0D0E00AC0CE01880F50
:1002E000991F23E0CC0FDD1F2A95E1F7C80FD91F16
:1002F000CE01A0E0B0E0A816B906CA06DB0674F786
:10030000CE016AE070E00E942708EB017B0100E06B
:1003100010E0C601B501A80197010E944E08DA015C
:10032000C90160E0805D0E94E300C601B501A8013B
:1003300097010E944E085B016C01C130D10501F7A5
:10034000DF91CF911F910F91FF90EF90DF90CF90B1
:10035000BF90AF9008950F931F93579A549A539A52
:10036000529A519A509A5C985F9824EF31E080E954
:1003700091E00197F1F721503040C9F780E30E94E6
:10038000C50080E49CE90197F1F780E30E94C50075
:1003900000E21EE4C8010197F1F780E30E94C50066
:1003A000C8010197F1F780E20E94C500C8010197DA
:1003B000F1F761E088E20E94E300C8010197F1F7DC
:1003C00061E08CE00E94E300C8010197F1F761E071
:1003D00086E00E94E300C8010197F1F761E081E047
:1003E0000E94E300C8010197F1F761E088E690E020
:1003F0000E940001C8010197F1F762E080E790E0F8
:100400000E940001C8010197F1F763E088E790E0DE
:100410000E940001C8010197F1F764E080E890E0D4
:100420000E940001C8010197F1F765E088E890E0BB
:100430000E940001C8010197F1F766E080E990E0B1
:100440000E940001C8010197F1F767E088E990E098
:100450000E940001C8010197F1F761E080E80E9465
:10046000E300C8010197F1F71F910F910895219AB8
:1004700080E480937C0087E880937A000895EF926F
:10048000FF920F931F93299880E694E00197F1F76C
:1004900080917A00806480937A0080917A0086FD52
:1004A000FCCF209178003091790085ED8A95F1F7A5
:1004B000299A80E497E90197F1F7B901660F771F50
:1004C000660F771F620F731F80E090E00E94C105E6
:1004D00020E030E040E85AE30E94390426E636E6A0
:1004E00046E65FE30E94DB0320E030E048E453E4AB
:1004F0000E9439047B018C0120E030E040E050E0B4
:100500000E943805882354F40F2EF0E0EF2EF0E01F
:10051000FF2EF0E00F2FF0E01F2FF02DC801B701E4
:100520001F910F91FF90EF900895A0E0B0E0EBE9EC
:10053000F2E00C948D082C015B01FA01DC019C9126
:10054000923008F432C1EB018881823008F42CC16A
:10055000943071F4843009F028C1F20191818981CD
:10056000981709F422C113E1412E11E0512E1DC14B
:10057000843009F419C18230A9F4923009F015C110
:10058000CA01A20128E0DA010D90AD01EC01099247
:10059000CE012150C1F7E5018981E20199818923CA
:1005A000818300C1923009F4FFC0E201CA80DB8080
:1005B000EB018A819B81E2012C813D814E815F812B
:1005C000EB01EC80FD800E811F81B601681B790B69
:1005D000DB0177FF03C0709561957F4F6032710535
:1005E0000CF05DC01A161B065CF5662477244301E7
:1005F00081E090E0A0E0B0E0062E04C0880F991FD3
:10060000AA1FBB1F0A94D2F70197A109B1098E2135
:100610009F21A023B1230097A105B10529F0B1E0E6
:100620006B2E712C812C912C04C016950795F79494
:10063000E7946A95D2F7E628F728082919293BC0DC
:10064000AB2BC9F1C60ED71E66247724430181E087
:1006500090E0A0E0B0E0062E04C0880F991FAA1F0A
:10066000BB1F0A94D2F70197A109B10982239323F2
:10067000A423B5230097A105B10529F0A1E06A2EB6
:10068000712C812C912C04C0569547953795279550
:100690006A95D2F726293729482959290CC08C1583
:1006A0009D0534F06C0120E030E040E050E003C0F4
:1006B000EE24FF248701E2019981E50189819817E1
:1006C00009F443C0992339F0E21AF30A040B150B1D
:1006D000A801970104C02E193F09400B510B57FD8B
:1006E00008C01182D382C282248335834683578314
:1006F0001DC081E08183D382C28288279927DC01D3
:10070000821B930BA40BB50B84839583A683B783BD
:100710000DC0220F331F441F551F2483358346838A
:1007200057838281938101979383828324813581CA
:1007300046815781DA01C9010197A109B1098F5F8B
:100740009F4FAF4FBF4328F30BC09183D382C28228
:100750002E0D3F1D401F511F248335834683578331
:1007600083E0808324813581468157815523D4F4E9
:10077000C901AA2797FDA095BA2F81709070A0702B
:10078000B0705695479537952795822B932BA42BC0
:10079000B52B84839583A683B78382819381019649
:1007A000938382832F0101C02501C201E0E1CDB70F
:1007B000DEB70C94A908A0E2B0E0E1EEF3E00C94FF
:1007C000970869837A838B839C832D833E834F8331
:1007D000588709E0E02EF12CEC0EFD1EB701CE018A
:1007E00001960E9461078E010F5E1F4FB801CE0176
:1007F00005960E9461078A8991E089278A8BAE015C
:10080000475E5F4FB801C7010E9495020E948106B2
:10081000E6E0A0960C94B308A0E2B0E0E2E1F4E0D8
:100820000C94970869837A838B839C832D833E8302
:100830004F83588789E0E82EF12CEC0EFD1EB7019E
:10084000CE0101960E9461078E010F5E1F4FB80115
:10085000CE0105960E946107AE01475E5F4FB80169
:10086000C7010E9495020E948106E6E0A0960C94C2
:10087000B308A0E2B0E0EFE3F4E00C948D086983E4
:100880007A838B839C832D833E834F83588799E0A3
:10089000E92EF12CEC0EFD1EB701CE0101960E944F
:1008A00061078E010F5E1F4FB801CE0105960E94B1
:1008B00061079985923088F089898230C0F0943040
:1008C00019F4823029F009C0843029F4923079F487
:1008D00063E171E0C6C0923041F420E09A858A89D4
:1008E000981321E02A87B701BCC0823041F420E090
:1008F0009A858A89981321E02A8BB801B2C0CD84E9
:10090000DE84EF84F8880D891E892F89388D88242C
:100910009924540140E050E060E070E04424552404
:100920003201E0E0F0E0C60181709070892BD9F0CF
:10093000800E911EA21EB31EDB01CA01840D951DFF
:10094000A61DB71D40E050E060E070E08016910603
:10095000A206B30620F441E050E060E070E0480FEA
:10096000591F6A1F7B1F440C551C661C771C37FFE0
:1009700008C081E090E0A0E0B0E0482A592A6A2A45
:100980007B2A3196E032F10549F0000F111F221F3A
:10099000331FF694E794D794C794C5CF8B899C896D
:1009A0002B853C85820F931F02969C8F8B8F1A8E0E
:1009B0009A858A89981711F081E08A8F2B8D3C8D5A
:1009C00017C0CA0181709070892B61F0B694A7940A
:1009D0009794879480E090E0A0E0B0E8882A992A74
:1009E000AA2ABB2A76956795579547952F5F3F4F63
:1009F00077FDE7CFC9010BC0440F551F661F771F56
:100A0000B7FC4160880C991CAA1CBB1C01974030A4
:100A1000A0E05A07A0E06A07A0E47A0768F39C8F79
:100A20008B8FDB01CA018F779070A070B07080341B
:100A30009105A105B10561F447FD0AC08114910437
:100A4000A104B10429F0405C5F4F6F4F7F4F4078A5
:100A50004D8F5E8F6F8F78A383E0898FBE01675EB5
:100A60007F4FCB010E948106E0E1A0960C94A9087B
:100A7000A8E1B0E0EEE3F5E00C94970869837A838F
:100A80008B839C832D833E834F83588789E0E82E98
:100A9000F12CEC0EFD1EB701CE0101960E946107FC
:100AA0008E010F5E1F4FB801CE0105960E946107AF
:100AB0008985823060F08989823048F0B801C701A9
:100AC0000E94D107282F332727FD309502C021E04F
:100AD00030E0C901E6E068960C94B308ACE0B0E001
:100AE000E4E7F5E00C949B0869837A838B839C830D
:100AF000BE016B5F7F4FCE0101960E9461078D8121
:100B00008230A9F1823098F1843021F48E818823DB
:100B100059F40FC02F81388537FD29C06E812F31E0
:100B2000310564F0662329F020E030E040E050E831
:100B300022C02FEF3FEF4FEF5FE71DC08EE190E047
:100B4000821B930B29853A854B855C8504C056959D
:100B50004795379527958A95D2F7662361F050958A
:100B60004095309521953F4F4F4F5F4F04C020E097
:100B700030E040E050E0CA01B901E2E02C960C946C
:100B8000B708A8E0B0E0E7ECF5E00C9495087B012D
:100B90008C01611571058105910519F482E0898345
:100BA0005AC083E089838EE1C82ED12CDC82CB82AF
:100BB000ED82FE820F831887C801B7010E943406B8
:100BC000BC016150704077FF33C0EE27FF27E61B62
:100BD000F70B20E030E040E050E081E090E0A0E062
:100BE000B0E00E2E04C0880F991FAA1FBB1F0A94E5
:100BF000D2F70197A109B1098E219F21A023B1232A
:100C00000097A105B10521F021E030E040E050E07F
:100C100004C016950795F794E794EA95D2F72E2924
:100C20003F29402B512B2D833E834F8358870FC084
:100C30006115710581F0062E04C0EE0CFF1C001F2B
:100C4000111F0A94D2F7ED82FE820F831887C61A0D
:100C5000D70ADC82CB821A82CE0101960E948106DD
:100C6000E8E028960C94B108EF92FF920F931F933F
:100C70009B01AC01203080E0380781E0480780E02C
:100C8000580780F42F3F31054105510509F020F444
:100C9000EE24FF24870119C068E0E62EF12C012D17
:100CA000112D13C0203080E0380780E0480781E034
:100CB000580730F490E1E92EF12C012D112D05C0DB
:100CC00088E1E82EF12C012D112D80E290E0A0E0CA
:100CD000B0E08E199F09A00BB10B04C05695479543
:100CE00037952795EA94D2F7F901E55EFE4F20810A
:100CF000821B9109A109B1091F910F91FF90EF90FB
:100D000008959F92AF92BF92CF92DF92EF92FF929F
:100D10000F931F93EE24FF248701FC01248135816A
:100D20004681578191808081823010F44061A2C059
:100D3000843009F49BC0823029F420E030E040E0A8
:100D400050E005C0211531054105510519F4E0E0D9
:100D5000F0E092C0828193816FEF823896070CF0A9
:100D60005AC062E87FEF681B790B6A3171052CF07D
:100D700020E030E040E050E02AC0AA24BB24650116
:100D800081E090E0A0E0B0E0062E04C0880F991F3B
:100D9000AA1FBB1F0A94D2F70197A109B1098223A8
:100DA0009323A423B5230097A105B10529F071E091
:100DB000A72EB12CC12CD12C04C056954795379540
:100DC00027956A95D2F72A293B294C295D29DA0112
:100DD000C9018F779070A070B07080349105A10523
:100DE000B10539F427FF09C0205C3F4F4F4F5F4FDB
:100DF00004C0215C3F4F4F4F5F4F80E090E02030B8
:100E000060E0360760E0460760E4560710F081E0D6
:100E100090E0FC0123C08038910544F5FC01E158C5
:100E2000FF4FDA01C9018F779070A070B0708034E5
:100E30009105A105B10539F427FF09C0205C3F4F9A
:100E40004F4F5F4F04C0215C3F4F4F4F5F4F57FFE5
:100E500005C05695479537952795319687E0569565
:100E60004795379527958A95D1F706C020E030E061
:100E700040E050E0EFEFF0E0E22EF32E942F9F776A
:100E8000802F8078892B9E2F9795992797958F771C
:100E9000082F092B9E2F9695812F8078892B979468
:100EA000992497948F77182F1929C801B7011F919A
:100EB0000F91FF90EF90DF90CF90BF90AF909F90F9
:100EC0000895CF93DF93FC01DB0120813181928172
:100ED000492F4F7750E0991F9927991F8381E82F59
:100EE000EE0FE92B6E2F70E0881F8827881FED0119
:100EF0008983EE2371F5211531054105510511F462
:100F000082E02FC06E577040FD017383628367E0FB
:100F1000220F331F441F551F6A95D1F783E08C932E
:100F20000AC0220F331F441F551FED018A819B8188
:100F300001979B838A832030E0E03E07E0E04E0784
:100F4000E0E45E0770F3ED012C833D834E835F8305
:100F500025C0EF3F79F4211531054105510519F4FC
:100F600084E08C931BC044FF03C081E08C9311C0CC
:100F70001C920FC06F577040ED017B836A8383E042
:100F80008C9387E0220F331F441F551F8A95D1F79A
:100F90005064FD012483358346835783DF91CF91CD
:100FA0000895CF93DF93DC01FB019C91923008F40C
:100FB00046C08081823008F442C0943049F4ED018B
:100FC0006981843079F5818190E0861B91093CC06C
:100FD000843021F0923031F48230A1F18181882374
:100FE00071F52AC0ED0169818230E1F081816817D5
:100FF000C9F4ED012A813B81828193818217930795
:101000008CF028173907B4F0ED018C819D81AE81F9
:10101000BF812481358146815781281739074A07C6
:101020005B0718F4662341F40AC082179307A407EC
:10103000B50740F4662319F48FEF9FEF05C081E0F8
:1010400090E002C080E090E0DF91CF910895AA1B6C
:10105000BB1B51E107C0AA1FBB1FA617B70710F0A3
:10106000A61BB70B881F991F5A95A9F780959095D5
:10107000BC01CD01089597FB092E07260AD077FD04
:1010800004D0E5DF06D000201AF4709561957F4FFB
:101090000895F6F7909581959F4F089597FB092E37
:1010A00005260ED057FD04D014D00AD0001C38F409
:1010B00050954095309521953F4F4F4F5F4F089584
:1010C000F6F790958095709561957F4F8F4F9F4F64
:1010D0000895A1E21A2EAA1BBB1BFD010DC0AA1F79
:1010E000BB1FEE1FFF1FA217B307E407F50720F091
:1010F000A21BB30BE40BF50B661F771F881F991F0C
:101100001A9469F760957095809590959B01AC0154
:10111000BD01CF0108952F923F924F925F926F923F
:101120007F928F929F92AF92BF92CF92DF92EF9277
:10113000FF920F931F93CF93DF93CDB7DEB7CA1BF8
:10114000DB0B0FB6F894DEBF0FBECDBF09942A8823
:10115000398848885F846E847D848C849B84AA84CB
:10116000B984C884DF80EE80FD800C811B81AA8158
:10117000B981CE0FD11D0FB6F894DEBF0FBECDBF23
:06118000ED010895FFCF10
:1011860075672F6D33002020202020202020002E80
:10119600002D000000000000000000000102020314
:1011A60003030304040404040404040505050505F7
:1011B60005050505050505050505050606060606D4
:1011C60006060606060606060606060606060606B9
:1011D60006060606060606060606060707070707A4
:1011E6000707070707070707070707070707070789
:1011F6000707070707070707070707070707070779
:101206000707070707070707070707070707070768
:101216000707070707070707070707080808080853
:101226000808080808080808080808080808080838
:101236000808080808080808080808080808080828
:101246000808080808080808080808080808080818
:101256000808080808080808080808080808080808
:1012660008080808080808080808080808080808F8
:1012760008080808080808080808080808080808E8
:1012860008080808080808080808080808080808D8
:0C129600080808080808080808080800F4
:00000001FF
