:1000000009C028C027C026C025C024C04CC022C0BB
:1000100021C020C011241FBECFE9CDBF14BE88E18E
:100020000FB6F89481BD11BC0FBE10E0A0E6B0E0A1
:10003000E6E3F1E002C005900D92A036B107D9F7D2
:1000400010E0A0E6B0E001C01D92A336B107E1F7D1
:1000500056D070C0D5CF89E087BB81B78E5F81BF96
:1000600080E184BB92E097B987E886B99FBD81E0C3
:1000700083BF8FE586BF84E089BFC398089540E0C1
:1000800020E030E0369A3699FECF84B195B1280F42
:10009000391F4F5F4830B1F7C90123E09695879526
:1000A0002A95E1F708951F920F920FB60F9211242F
:1000B0002F933F938F939F93209160003091610025
:1000C0008091620090E08217930710F4C09801C0FD
:1000D000C09A87E02F3C380718F080E090E002C01B
:1000E000C901019690936100809360009F918F9168
:1000F0003F912F910F900FBE0F901F901895ABDF7F
:10010000BEDF96958795969587958093620088E1E6
:1001100090E02BE00FB6F894A89581BD0FBE21BDED
:100120007894ADDF96958795969587958093620034
:06013000A895F7CFFFCFF8
:00000001FF
