:100000000C9434000C944F000C944F000C944F004F
:100010000C944F000C944F000C944F000C9467000C
:100020000C944F000C944F000C944F000C94520110
:100030000C944F000C944F000C94EA000C944F0069
:100040000C944F000C944F000C944F000C944F00F4
:100050000C944F000C944F000C944F000C944F00E4
:100060000C944F000C944F0011241FBECFEFCDBF56
:1000700012E0A0E0B1E0E2E3F8E102C005900D92E9
:10008000A431B107D9F712E0A4E1B2E001C01D929A
:10009000AA31B107E1F70E94B6000C94180C0C9439
:1000A000000082E08093B00093E09093B10099EF5C
:1000B0009093B3001092B2001092160210921702A1
:1000C00010921802109219028093700008951F92E6
:1000D0000F920FB60F9211242F933F934F935F937C
:1000E0006F937F938F939F93AF93BF93EF93FF9300
:1000F0000E946002882349F01092160210921702A3
:10010000109218021092190213C080911602909159
:100110001702A0911802B09119020196A11DB11DFC
:100120008093160290931702A0931802B0931902BD
:10013000FF91EF91BF91AF919F918F917F916F91BF
:100140005F914F913F912F910F900FBE0F901F9095
:1001500018950E945E020E946E050E94600288232C
:10016000E1F30E945C020E94370508951F930E94EC
:10017000A0010E9457020E9451000E94A9000E9403
:100180006002182F8823B1F00E945C0210FF03C0A8
:100190000E94770411C011FF03C00E940F030CC01E
:1001A00012FF03C00E94670207C013FF05C00E9430
:1001B000B70302C00E945E0280911602909117025E
:1001C000A0911802B091190281529E44A040B04003
:1001D000B0F2D3CF1F920F920FB60F9211242F932C
:1001E0003F934F935F936F937F938F939F93AF93BF
:1001F000BF93EF93FF9350911502583060F42BB1E9
:1002000081E090E0052E02C0880F991F0A94E2F762
:10021000282B2BB910C05C3070F448B1252F30E08A
:100220002850304081E090E002C0880F991F2A9545
:10023000E2F7482B48B9852F81508C30C8F4E52F60
:10024000F0E0E150FF4F808190E023E0880F991F9C
:100250002A95E1F790938900809388001092850099
:1002600010928400B19A80916F00826080936F0039
:10027000852F90E0019664E170E00E94BA0B8093B4
:100280001502FF91EF91BF91AF919F918F917F9157
:100290006F915F914F913F912F910F900FBE0F90F3
:1002A0001F9018951F920F920FB60F9211242F9343
:1002B0003F934F935F936F937F938F939F93AF93EE
:1002C000BF9350911402583068F42BB181E090E054
:1002D000052E02C0880F991F0A94E2F780958223A9
:1002E0008BB911C05C3078F448B1252F30E028502C
:1002F000304081E090E002C0880F991F2A95E2F714
:100300008095842388B9852F90E001966CE070E099
:100310000E94BA0B8093140280916F008D7F8093AE
:100320006F00BF91AF919F918F917F916F915F917E
:100330004F913F912F910F900FBE0F901F901895E6
:100340008FE087B98FEF8AB992E094BD83E085BDD5
:1003500089EF87BD16BC109280008AE080938100EF
:1003600010928200109285001092840090936E008B
:10037000789408952F923F925F926F927F928F921E
:100380009F92AF92BF92CF92DF92EF92FF920F9324
:100390001F93CF93DF931C01542E40E090E0662E14
:1003A000772488249924C52DD0E028C0E42FF0E0DC
:1003B000DF01A050BF4F8C91E20DF31DE0818E173D
:1003C00060F48C919E01280F311D8E2F90E08217D2
:1003D00093078CF0EC91E50D0EC08C91E81768F452
:1003E0008C9190E08C1B9D0B2E2F30E08217930791
:1003F00014F0EC91E519EC9391E04F5F4C30B0F2C2
:10040000992309F442C0C401B3010E9454095B015D
:100410006C0120E030E04AE755E40E9460077B0170
:100420008C0120E030E040E85FE30E94CB088823A5
:100430001CF481E090E024C020E03FEF4FE757E458
:10044000C801B7010E945F081816ACF420E030E044
:1004500040E251E4C601B5010E9460070E94960582
:1004600006C080E991E00197F1F761507040611595
:100470007105B9F707C0C801B7010E949605CB0105
:100480000197F1F740E090E091CFDF91CF911F917C
:100490000F91FF90EF90DF90CF90BF90AF909F9023
:1004A0008F907F906F905F903F902F900895259A46
:1004B00084B1817E84B908952D9A08952D98089568
:1004C00083B190E08E719070969587950895AF9264
:1004D000BF92CF92DF92EF92FF920F931F93CF9331
:1004E000DF93CDB7DEB72C970FB6F894DEBF0FBE03
:1004F000CDBF52EDA52EAA864EEEE42EEB86EC86FD
:100500003DE7C32ECB822CE0F22EFA82F98294E1F1
:10051000B92EB986FF82F886CC82ED82EE8241E068
:1005200062E08E010F5F1F4FC8010E94BA0186E989
:10053000D82EDF82D88641E061E0C8010E94BA016E
:10054000C98641E061E0C8010E94BA01FF82F886D5
:1005500041E061E0C8010E94BA01CA86EB86EC86E0
:10056000BB82FA82F982B986FF82F886FC82ED822C
:10057000EE8241E062E0C8010E94BA01DF82D886C3
:1005800041E061E0C8010E94BA01C98641E061E032
:10059000C8010E94BA01FF82F88641E061E0C8010B
:1005A0000E94BA0184E68D838E8341E061E0C80138
:1005B0000E94BA01CC8241E061E0C8010E94BA0108
:1005C000ED82EE8241E061E0C8010E94BA01CB8277
:1005D00082E38A83898341E061E0C8010E94BA0115
:1005E000FA82F98241E061E0C8010E94BA01AA865C
:1005F000B98641E061E0C8010E94BA012C960FB6AD
:10060000F894DEBF0FBECDBFDF91CF911F910F9148
:10061000FF90EF90DF90CF90BF90AF900895AF9292
:10062000BF92CF92DF92EF92FF920F931F93CF93DF
:10063000DF93CDB7DEB72C970FB6F894DEBF0FBEB1
:10064000CDBFB2EDBB2EBA86AEEEFA2EFB86FC868F
:10065000FDE7CF2ECB82ECE0EE2EEA82E98274E158
:10066000A72EA986EF82E886CC82FD82FE8241E039
:1006700062E08E010F5F1F4FC8010E94BA0164E65D
:10068000D62EDB86DC8641E061E0C8010E94BA011B
:10069000CA8641E061E0C8010E94BA01FB86FC867F
:1006A00041E061E0C8010E94BA01BA86FB86FC867F
:1006B000BB82EA82E982C986EF82E886FC82FD82FB
:1006C000FE8241E062E0C8010E94BA01DB86DC865E
:1006D00041E061E0C8010E94BA01CA8641E061E0E0
:1006E000C8010E94BA01FB86FC8641E061E0C801B6
:1006F0000E94BA0186E98A83898341E061E0C801EA
:100700000E94BA01CB8241E061E0C8010E94BA01B7
:10071000EA82E98241E061E0C8010E94BA01CC822C
:1007200088EC8D838E8341E061E0C8010E94BA01AC
:10073000FD82FE8241E061E0C8010E94BA01BA86F2
:10074000A98641E061E0C8010E94BA012C960FB66B
:10075000F894DEBF0FBECDBFDF91CF911F910F91F7
:10076000FF90EF90DF90CF90BF90AF9008958F9261
:100770009F92AF92BF92CF92DF92EF92FF920F9330
:100780001F93CF93DF93CDB7DEB72C970FB6F894B6
:10079000DEBF0FBECDBFE2ED8E2E8A867EEEC72E67
:1007A000CB86CC866DE7A62EAB825CE0F52EFA8276
:1007B000F98244E1942E9986FF82F886AC82CD823C
:1007C000CE8241E062E08E010F5F1F4FC8010E94A0
:1007D000BA0136E9E32EEF82E88641E061E0C80124
:1007E0000E94BA01E98641E061E0C8010E94BA01B5
:1007F000FF82F88641E061E0C8010E94BA01AA8642
:10080000CB86CC86EB82FA82F982A986FF82F886B3
:10081000CC82CD82CE8241E062E0C8010E94BA0162
:10082000EA82E98241E061E0C8010E94BA018FE0FA
:100830008B8341E061E0C8010E94BA01FA82F9822B
:1008400041E061E0C8010E94BA0124E6E22EED8297
:10085000EE8241E061E0C8010E94BA01EC8241E011
:1008600061E0C8010E94BA0198ECB92EBD8280EF08
:10087000D82EDE8241E061E0C8010E94BA01EA861A
:10088000BB86DC86AB82FA82F9829986FF82F88683
:10089000AC82CD82CE8241E062E0C8010E94BA0102
:1008A000EB86EC8641E061E0C8010E94BA018A86CD
:1008B00041E061E0C8010E94BA01CB86CC8641E0EC
:1008C00061E0C8010E94BA012C960FB6F894DEBF11
:1008D0000FBECDBFDF91CF911F910F91FF90EF9091
:1008E000DF90CF90BF90AF909F908F9008958F92A0
:1008F0009F92AF92BF92CF92DF92EF92FF920F93AF
:100900001F93CF93DF93CDB7DEB72C970FB6F89434
:10091000DEBF0FBECDBF52ED952E9A864EEEE42E71
:10092000EB86EC863DE7A32EAB822CE0F22EFA821A
:10093000F98294E1892E8986FF82F886AC82ED8265
:10094000EE8241E062E08E010F5F1F4FC8010E94FE
:10095000BA0184E6D82EDB86DC8641E061E0C8017E
:100960000E94BA01DA8641E061E0C8010E94BA0142
:10097000B8ECBB2EBB86A0EFCA2ECC8641E061E06E
:10098000C8010E94BA01AA86EB86EC868FE08B83B1
:10099000FA82F982A986FF82F886DC82BD82CE8245
:1009A00041E062E0C8010E94BA01DD82DE8241E0DE
:1009B00061E0C8010E94BA01EC8241E061E0C80137
:1009C0000E94BA01ED82EE8241E061E0C8010E941E
:1009D000BA01F6E9DF2EDA82D98241E061E0C8018E
:1009E0000E94BA01DB8241E061E0C8010E94BA01C5
:1009F000FA82F98241E061E0C8010E94BA019A8658
:100A0000EB86EC86AB82FA82F982D986FF82F88681
:100A1000AC82ED82EE8241E062E0C8010E94BA0140
:100A2000DF82D88641E061E0C8010E94BA01898670
:100A300041E061E0C8010E94BA01FF82F88641E00E
:100A400061E0C8010E94BA012C960FB6F894DEBF8F
:100A50000FBECDBFDF91CF911F910F91FF90EF900F
:100A6000DF90CF90BF90AF909F908F9008950F939D
:100A70001F93CF93DF93CDB7DEB72C970FB6F894C3
:100A8000DEBF0FBECDBF9DE79A872EEE2B872C874A
:100A90009B838CE08A83898399878F8388879C8353
:100AA0002D832E8341E064E08E010F5F1F4FC8014C
:100AB0000E94BA0182ED8A8784E1898741E061E082
:100AC000C8010E94BA012C960FB6F894DEBF0FBE83
:100AD000CDBFDF91CF911F910F910895CF93DF93F9
:100AE000CDB7DEB72C970FB6F894DEBF0FBECDBFE3
:100AF0008DE78A8729E12B872C878B8391EE9A8358
:100B0000998389879F8398878C832D832E8341E0E7
:100B100064E0CE0101960E94BA012C960FB6F894BB
:100B2000DEBF0FBECDBFDF91CF910895EF92FF9250
:100B30000F931F937B018C0120E030E040E05FE4E5
:100B40000E94950888237CF020E030E040E05FE4DC
:100B5000C801B7010E9402070E940109605070405D
:100B60008040904804C0C801B7010E9401091F914C
:100B70000F91FF90EF900895A0E0B0E0E2ECF5E077
:100B80000C94E30B2C015B01FA01DC019C91923087
:100B900008F432C1EB018881823008F42CC1943012
:100BA00071F4843009F028C1F2019181898198178C
:100BB00009F422C11CE0412E11E0512E1DC18430E8
:100BC00009F419C18230A9F4923009F015C1CA01A3
:100BD000A20128E0DA010D90AD01EC010992CE01ED
:100BE0002150C1F7E5018981E2019981892381833F
:100BF00000C1923009F4FFC0E201CA80DB80EB0142
:100C00008A819B81E2012C813D814E815F81EB01D4
:100C1000EC80FD800E811F81B601681B790BDB0122
:100C200077FF03C0709561957F4F603271050CF0BE
:100C30005DC01A161B065CF566247724430181E02B
:100C400090E0A0E0B0E0062E04C0880F991FAA1F14
:100C5000BB1F0A94D2F70197A109B1098E219F21E8
:100C6000A023B1230097A105B10529F0B1E06B2EB7
:100C7000712C812C912C04C016950795F794E7945C
:100C80006A95D2F7E628F728082919293BC0AB2B2B
:100C9000C9F1C60ED71E66247724430181E090E097
:100CA000A0E0B0E0062E04C0880F991FAA1FBB1F4A
:100CB0000A94D2F70197A109B10982239323A423AF
:100CC000B5230097A105B10529F0A1E06A2E712C8A
:100CD000812C912C04C056954795379527956A9598
:100CE000D2F726293729482959290CC08C159D058A
:100CF00034F06C0120E030E040E050E003C0EE242E
:100D0000FF248701E2019981E5018981981709F49F
:100D100043C0992339F0E21AF30A040B150BA8011A
:100D2000970104C02E193F09400B510B57FD08C015
:100D30001182D382C28224833583468357831DC0A8
:100D400081E08183D382C28288279927DC01821BBC
:100D5000930BA40BB50B84839583A683B7830DC037
:100D6000220F331F441F551F248335834683578327
:100D70008281938101979383828324813581468187
:100D80005781DA01C9010197A109B1098F5F9F4F0E
:100D9000AF4FBF4328F30BC09183D382C2822E0D85
:100DA0003F1D401F511F248335834683578383E0B3
:100DB000808324813581468157815523D4F4C9012C
:100DC000AA2797FDA095BA2F81709070A070B0707F
:100DD0005695479537952795822B932BA42BB52BAA
:100DE00084839583A683B7838281938101969383BD
:100DF00082832F0101C02501C201E0E1CDB7DEB73A
:100E00000C94FF0BA0E2B0E0E8E0F7E00C94ED0BEF
:100E100069837A838B839C832D833E834F8358879A
:100E200009E0E02EF12CEC0EFD1EB701CE0101967B
:100E30000E94F40A8E010F5E1F4FB801CE01059685
:100E40000E94F40A8A8991E089278A8BAE01475E65
:100E50005F4FB801C7010E94BC050E94140AE6E07A
:100E6000A0960C94090CA0E2B0E0E9E3F7E00C9442
:100E7000ED0B69837A838B839C832D833E834F8321
:100E8000588789E0E82EF12CEC0EFD1EB701CE014B
:100E900001960E94F40A8E010F5E1F4FB801CE0129
:100EA00005960E94F40AAE01475E5F4FB801C70184
:100EB0000E94BC050E94140AE6E0A0960C94090C5E
:100EC000A0E2B0E0E6E6F7E00C94E30B69837A83F6
:100ED0008B839C832D833E834F83588799E0E92E33
:100EE000F12CEC0EFD1EB701CE0101960E94F40A12
:100EF0008E010F5E1F4FB801CE0105960E94F40AC5
:100F00009985923088F089898230C0F0943019F444
:100F1000823029F009C0843029F4923079F46CE0F1
:100F200071E0C6C0923041F420E09A858A89981316
:100F300021E02A87B701BCC0823041F420E09A85C5
:100F40008A89981321E02A8BB801B2C0CD84DE844F
:100F5000EF84F8880D891E892F89388D882499247B
:100F6000540140E050E060E070E044245524320138
:100F7000E0E0F0E0C60181709070892BD9F0800E1E
:100F8000911EA21EB31EDB01CA01840D951DA61D74
:100F9000B71D40E050E060E070E080169106A206C8
:100FA000B30620F441E050E060E070E0480F591FC4
:100FB0006A1F7B1F440C551C661C771C37FF08C03A
:100FC00081E090E0A0E0B0E0482A592A6A2A7B2A12
:100FD0003196E032F10549F0000F111F221F331F37
:100FE000F694E794D794C794C5CF8B899C892B85B9
:100FF0003C85820F931F02969C8F8B8F1A8E9A8549
:101000008A89981711F081E08A8F2B8D3C8D17C04B
:10101000CA0181709070892B61F0B694A79497945F
:10102000879480E090E0A0E0B0E8882A992AAA2A74
:10103000BB2A76956795579547952F5F3F4F77FD6C
:10104000E7CFC9010BC0440F551F661F771FB7FCC0
:101050004160880C991CAA1CBB1C01974030A0E081
:101060005A07A0E06A07A0E47A0768F39C8F8B8F89
:10107000DB01CA018F779070A070B0708034910549
:10108000A105B10561F447FD0AC081149104A104D2
:10109000B10429F0405C5F4F6F4F7F4F40784D8F18
:1010A0005E8F6F8F78A383E0898FBE01675E7F4F6D
:1010B000CB010E94140AE0E1A0960C94FF0BA8E17A
:1010C000B0E0E5E6F8E00C94ED0B69837A838B835E
:1010D0009C832D833E834F83588789E0E82EF12C33
:1010E000EC0EFD1EB701CE0101960E94F40A8E019E
:1010F0000F5E1F4FB801CE0105960E94F40A898544
:10110000823060F08989823048F0B801C7010E94BE
:10111000640B282F332727FD309502C02FEF3FEFB8
:10112000C901E6E068960C94090CA8E1B0E0EBE98F
:10113000F8E00C94ED0B69837A838B839C832D8379
:101140003E834F83588789E0E82EF12CEC0EFD1E7C
:10115000B701CE0101960E94F40A8E010F5E1F4F67
:10116000B801CE0105960E94F40A8985823060F0AC
:101170008989823048F0B801C7010E94640B282F8A
:10118000332727FD309502C02FEF3FEFC901E6E07E
:1011900068960C94090CA8E1B0E0E1EDF8E00C943D
:1011A000ED0B69837A838B839C832D833E834F83EE
:1011B000588789E0E82EF12CEC0EFD1EB701CE0118
:1011C00001960E94F40A8E010F5E1F4FB801CE01F6
:1011D00005960E94F40A8985823060F08989823000
:1011E00048F0B801C7010E94640B282F332727FD60
:1011F000309502C021E030E0C901E6E068960C9429
:10120000090CACE0B0E0E7E0F9E00C94F10B698385
:101210007A838B839C83BE016B5F7F4FCE010196E7
:101220000E94F40A8D818230A9F1823098F18430D5
:1012300021F48E81882359F40FC02F81388537FD22
:1012400029C06E812F31310564F0662329F020E03A
:1012500030E040E050E822C02FEF3FEF4FEF5FE774
:101260001DC08EE190E0821B930B29853A854B854A
:101270005C8504C056954795379527958A95D2F792
:10128000662361F050954095309521953F4F4F4F23
:101290005F4F04C020E030E040E050E0CA01B901F7
:1012A000E2E02C960C940D0CA8E0B0E0EAE5F9E041
:1012B0000C94EB0B7B018C01611571058105910587
:1012C00019F482E089835AC083E089838EE1C82EB5
:1012D000D12CDC82CB82ED82FE820F831887C8017D
:1012E000B7010E94C709BC016150704077FF33C04D
:1012F000EE27FF27E61BF70B20E030E040E050E050
:1013000081E090E0A0E0B0E00E2E04C0880F991FAD
:10131000AA1FBB1F0A94D2F70197A109B1098E2118
:101320009F21A023B1230097A105B10521F021E061
:1013300030E040E050E004C016950795F794E7943C
:10134000EA95D2F72E293F29402B512B2D833E833E
:101350004F8358870FC06115710581F0062E04C0B8
:10136000EE0CFF1C001F111F0A94D2F7ED82FE82C3
:101370000F831887C61AD70ADC82CB821A82CE0165
:1013800001960E94140AE8E028960C94070CEF924C
:10139000FF920F931F939B01AC01203080E0380730
:1013A00081E0480780E0580780F42F3F3105410570
:1013B000510509F020F4EE24FF24870119C068E0EC
:1013C000E62EF12C012D112D13C0203080E03807BE
:1013D00080E0480781E0580730F490E1E92EF12CD5
:1013E000012D112D05C088E1E82EF12C012D112DC4
:1013F00080E290E0A0E0B0E08E199F09A00BB10B55
:1014000004C05695479537952795EA94D2F7F90188
:10141000EC5EFE4F2081821B9109A109B1091F9149
:101420000F91FF90EF9008959F92AF92BF92CF924D
:10143000DF92EF92FF920F931F93EE24FF24870118
:10144000FC012481358146815781918080818230E1
:1014500010F44061A2C0843009F49BC0823029F4AA
:1014600020E030E040E050E005C0211531054105A5
:10147000510519F4E0E0F0E092C0828193816FEFB2
:10148000823896070CF05AC062E87FEF681B790B30
:101490006A3171052CF020E030E040E050E02AC0D5
:1014A000AA24BB24650181E090E0A0E0B0E0062E14
:1014B00004C0880F991FAA1FBB1F0A94D2F7019777
:1014C000A109B10982239323A423B5230097A10581
:1014D000B10529F071E0A72EB12CC12CD12C04C08C
:1014E00056954795379527956A95D2F72A293B292E
:1014F0004C295D29DA01C9018F779070A070B07016
:1015000080349105A105B10539F427FF09C0205C9D
:101510003F4F4F4F5F4F04C0215C3F4F4F4F5F4FD6
:1015200080E090E0203060E0360760E0460760E44D
:10153000560710F081E090E0FC0123C0803891054F
:1015400044F5FC01E158FF4FDA01C9018F77907033
:10155000A070B07080349105A105B10539F427FF62
:1015600009C0205C3F4F4F4F5F4F04C0215C3F4F8D
:101570004F4F5F4F57FF05C05695479537952795B5
:10158000319687E056954795379527958A95D1F7F7
:1015900006C020E030E040E050E0EFEFF0E0E22E67
:1015A000F32E942F9F77802F8078892B9E2F9795ED
:1015B000992797958F77082F092B9E2F9695812F26
:1015C0008078892B9794992497948F77182F1929CD
:1015D000C801B7011F910F91FF90EF90DF90CF905E
:1015E000BF90AF909F900895CF93DF93FC01DB01F4
:1015F000208131819281492F4F7750E0991F99279F
:10160000991F8381E82FEE0FE92B6E2F70E0881F62
:101610008827881FED018983EE2371F52115310597
:101620004105510511F482E02FC06E577040FD0155
:101630007383628367E0220F331F441F551F6A952F
:10164000D1F783E08C930AC0220F331F441F551F2C
:10165000ED018A819B8101979B838A832030E0E0A2
:101660003E07E0E04E07E0E45E0770F3ED012C83F7
:101670003D834E835F8325C0EF3F79F4211531050B
:101680004105510519F484E08C931BC044FF03C04D
:1016900081E08C9311C01C920FC06F577040ED0118
:1016A0007B836A8383E08C9387E0220F331F441F80
:1016B000551F8A95D1F75064FD01248335834683F5
:1016C0005783DF91CF910895CF93DF93DC01FB0126
:1016D0009C91923008F446C08081823008F442C068
:1016E000943049F4ED016981843079F5818190E08D
:1016F000861B91093CC0843021F0923031F4823055
:10170000A1F18181882371F52AC0ED0169818230C0
:10171000E1F081816817C9F4ED012A813B81828162
:101720009381821793078CF028173907B4F0ED01E5
:101730008C819D81AE81BF81248135814681578115
:10174000281739074A075B0718F4662341F40AC0D3
:1017500082179307A407B50740F4662319F48FEFA7
:101760009FEF05C081E090E002C080E090E0DF9153
:10177000CF91089597FB092E07260AD077FD04D054
:101780000CD006D000201AF4709561957F4F089513
:10179000F6F7909581959F4F0895AA1BBB1B51E1C9
:1017A00007C0AA1FBB1FA617B70710F0A61BB70BD1
:1017B000881F991F5A95A9F780959095BC01CD0176
:1017C00008952F923F924F925F926F927F928F92E5
:1017D0009F92AF92BF92CF92DF92EF92FF920F93C0
:1017E0001F93CF93DF93CDB7DEB7CA1BDB0B0FB6CA
:1017F000F894DEBF0FBECDBF09942A883988488887
:101800005F846E847D848C849B84AA84B984C8841C
:10181000DF80EE80FD800C811B81AA81B981CE0F13
:10182000D11D0FB6F894DEBF0FBECDBFED010895F8
:02183000FFCFE8
:10183200E1E17D7D1919E1E17D7D191900000000CA
:101842000000000000010202030303030404040475
:10185200040404040505050505050505050505053A
:10186200050505050606060606060606060606061A
:101872000606060606060606060606060606060606
:1018820006060606070707070707070707070707EA
:1018920007070707070707070707070707070707D6
:1018A20007070707070707070707070707070707C6
:1018B20007070707070707070707070707070707B6
:1018C200070707070808080808080808080808089A
:1018D2000808080808080808080808080808080886
:1018E2000808080808080808080808080808080876
:1018F2000808080808080808080808080808080866
:101902000808080808080808080808080808080855
:101912000808080808080808080808080808080845
:101922000808080808080808080808080808080835
:101932000808080808080808080808080808080825
:041942000808080881
:00000001FF
