:100000000C9434000C944F000C944F000C944F004F
:100010000C944F000C944F000C944F000C944F0024
:100020000C944F000C944F000C944F000C94510012
:100030000C944F000C944F000C944F000C944F0004
:100040000C944F000C944F000C944F000C944F00F4
:100050000C944F000C944F000C944F000C944F00E4
:100060000C944F000C944F0011241FBECFEFCDBF56
:1000700011E0A0E0B1E0E4ECF9E002C005900D92DF
:10008000A030B107D9F711E0A0E0B1E001C01D92A6
:10009000A831B107E1F70E949C000C94E1040C9494
:1000A00000001F920F920FB60F9211248F939F930F
:1000B0008BB198E089278BB99F918F910F900FBEDC
:1000C0000F901F90189590917C00907F90937C00EA
:1000D00090917C00982B90937C0080917A008064B2
:1000E00080937A0080917A0086FDFCCF8091780021
:1000F0009091790008950E94CA040E942503539AA2
:1001000087B1817C87B988B1886388B980E480939E
:100110007C0087E880937A0083E0809380008CE104
:100120008093810080ED97E0909389008093880010
:1001300082E080936F000895DF92EF92FF920F9319
:100140001F930E947B0020E137E280E991E0019754
:10015000F1F721503040C9F7789488EB809316016D
:1001600010921401109211011092150110921701B2
:100170000E94DC0385E50E949E03DD24EE24FF241B
:10018000359909C0DD2039F40E9432030E94DC0356
:10019000DD24D39409C0359B07C0DD2029F00E94DF
:1001A00038030E94DC03DD24349909C0EE2039F4C1
:1001B0000E943E030E94DC03EE24E39409C0349BBA
:1001C00007C0EE2029F00E9444030E94DC03EE24C5
:1001D000339909C0FF2039F40E9462030E94DC03B6
:1001E000FF24F39409C0339B07C0FF2029F00E942D
:1001F00068030E94DC03FF2482E00E94630020E089
:1002000034E0281B390B85E0220F331F8A95E1F774
:10021000309313012093120181E00E946300409605
:100220009093890080938800609188007091890084
:100230006F5F7F4F80EA9FE00E94CD0460931001C2
:100240000E94840400E41CE9C8010197F1F70E94B0
:100250006204C8010197F1F70E941E04C8010197CA
:10026000F1F70E94AA04C8010197F1F789CFFB01B9
:100270008EBD0DB407FEFDCF309711F08EB5808393
:1002800008950F931F93182F062F299860E070E0B0
:1002900082E00E94370160E070E0812F0E94370108
:1002A00060E070E0802F0E943701299A1F910F9122
:1002B0000895219A389884B18C6284B9249881E594
:1002C0008CBD299860E070E080EC0E943701299A8B
:1002D00060E08CE00E94410160E08DE00E944101FD
:1002E00060E08AE20E94410166EB89E20E944101DE
:1002F00064E088E20E94410160E080E60E944101E2
:1003000060E080E70E94410160E084E20E944101D8
:1003100060E085E20E94410160E086E20E944101C6
:1003200060E087E20E9441016FEF84E20E94410198
:100330006FEF85E20E9441016FEF86E20E9441016A
:100340006FEF87E20E94410161E08BE20E94410170
:1003500068E08FE00E9441010895AF92BF92CF9272
:10036000DF92EF92FF920F931F93CF93DF93CDB75E
:10037000DEB721970FB6F894DEBF0FBECDBF7C016C
:100380003099FECF299860E070E080E90E94370143
:100390008E010F5F1F4FB80180E00E9437018981F5
:1003A00090E023E0880F991F2A95E1F7F7019183E8
:1003B0008083B80180E00E9437012981229526952B
:1003C000277030E0F70180819181822B932B9183FC
:1003D0008083B80180E00E943701B80180E00E946C
:1003E0003701B80180E00E94370189818F70F701E1
:1003F0008383CC24DD24580109C0B50180E00E942C
:100400003701F701E10FF11D898184831C2D0894C8
:10041000C11CD11CF7018381181778F3299860E07B
:1004200070E085E00E94370160E070E08CE20E949D
:10043000370160E070E081E00E94370160E070E029
:1004400080E00E943701299A21960FB6F894DEBF0A
:100450000FBECDBFDF91CF911F910F91FF90EF9015
:10046000DF90CF90BF90AF9008950F931F93CF93DD
:10047000DF93EC016881798133E0769567953A9551
:10048000E1F781E30E94410168816295660F607E19
:1004900082E30E9441018A81882331F06B8160648C
:1004A00085E30E94410115C06B8185E30E944101F3
:1004B00000E010E008C0FE01E90FF11D6481802F0B
:1004C0008B5C0E944101902F0F5F1F4F8B8198170B
:1004D00090F3299860E070E081E80E943701299A42
:1004E000DF91CF911F910F9108950F931F938C016E
:1004F000BC0143E0769567954A95E1F780E20E945A
:1005000041010295000F007E602F81E20E944101AF
:100510001F910F9108950F931F938C01BC0153E01D
:10052000769567955A95E1F784E20E94410102951C
:10053000000F007E602F85E20E9441011F910F9104
:1005400008950F931F938C01BC01E3E076956795A6
:10055000EA95E1F780E00E9441010295000F007EDC
:10056000602F81E00E9441011F910F9108950F9328
:100570001F938C01BC01F3E076956795FA95E1F73E
:1005800084E00E9441010295000F007E602F85E00B
:100590000E9441011F910F9108950F931F938C01A9
:1005A000BC01A3E076956795AA95E1F788E00E94E3
:1005B00041010295000F007E602F89E00E944101F9
:1005C0001F910F9108950F931F938C01BC01B3E00D
:1005D00076956795BA95E1F780E10E944101029511
:1005E000000F007E602F81E10E9441011F910F9159
:1005F00008950F931F938C01BC0113E076956795C6
:100600001A95E1F784E10E9441010295000F007EF6
:10061000602F85E10E9441011F910F9108950F9372
:100620001F938C01BC0183E0769567958A95E1F76D
:1006300088E10E9441010295000F007E602F89E150
:100640000E9441011F910F910895519A1092C50087
:1006500087E68093C40088E08093C10086E280939F
:10066000C200089580910001806280930001089586
:10067000809100018F7D8093000108958091000199
:100680008064809300010895809100018F7B8093A6
:100690000001089580910001886080930001089511
:1006A00080910001877F809300010895809100016F
:1006B0008061809300010895809100018F7E809376
:1006C00000010895809100018460809300010895E5
:1006D000809100018B7F809300010895809101013A
:1006E0008062809301010895809101018F7D809344
:1006F00001010895809101018061809301010895B5
:10070000809101018F7E8093010108958091010104
:10071000886080930101089580910101877F809313
:100720000101089580910101846080930101089581
:10073000809101018B7F809301010895982F809112
:10074000C00085FFFCCF80ED8093C6008091C00083
:1007500085FFFCCF87E08093C6008091C00085FFB5
:10076000FCCF8FEB8093C6008091C00085FFFCCF4B
:100770008CE58093C6008091C00085FFFCCF10926D
:10078000C6008091C00085FFFCCF9093C600809189
:10079000C00085FFFCCF1092C6008091C00085FF8D
:1007A000FCCF1092C6008091C00085FFFCCF84E38F
:1007B00089278093C60008958091C00085FFFCCFF3
:1007C00080ED8093C6008091C00085FFFCCF87E05C
:1007D0008093C6008091C00085FFFCCF8FEB809393
:1007E000C6008091C00085FFFCCF8BE58093C600DA
:1007F000909100018091C00085FFFCCF9093C600CE
:100800008091C00085FFFCCF1092C6008091C0008F
:1008100085FFFCCF1092C600209101018091C0009D
:1008200085FFFCCF2093C6008091C00085FFFCCFE0
:10083000922783E398279093C60008958091100132
:100840002091020130910301280F311D30930301E3
:100850002093020185E495E09093050180930401C3
:100860001092060188E08093070190911501990F7D
:10087000990F990F80911701880F980F809111019E
:100880008295807F980F9093080120930901232F70
:10089000332720930A0180911401880F880F880F55
:1008A00080930B018EE780930C0180E180930D0112
:1008B00010920E0188E180930F0184E091E00E9484
:1008C0003502089589E293E0909305018093040135
:1008D0001092060188E08093070110920801809130
:1008E00016018093090110920A0110920B011092D7
:1008F0000C0110920D0110920E0110920F0184E074
:1009000091E00E943502089586E193E090930501FD
:10091000809304011092060188E0809307011092F1
:1009200008011092090180911201909113018093A6
:100930000A01892F992780930B0110920C011092C4
:100940000D0110920E0110920F0184E091E00E94BF
:100950003502089583E591E09093050180930401A9
:100960001092060188E0809307011092080110920E
:10097000090110920A0110920B0110920C011092C1
:100980000D0110920E0110920F0184E091E00E947F
:10099000350208950E9459010895AA1BBB1B51E11D
:1009A00007C0AA1FBB1FA617B70710F0A61BB70BDF
:1009B000881F991F5A95A9F780959095BC01CD0184
:0409C0000895FFCFC8
:00000001FF
