:100000000C944B000C9466000C9466000C946600F3
:100010000C9466000C9466000C9466000C946600C8
:100020000C9466000C9466000C9466000C946600B8
:100030000C9466000C9466000C9468000C946600A6
:100040000C9466000C9466000C9466000C94660098
:100050000C9466000C9466000C9466000C94660088
:100060000C9466000C946600084AD73B3BCE016EA8
:1000700084BCBFFDC12F3D6C74319ABD56833DDAFF
:100080003D00C77F11BED9E4BB4C3E916BAAAABE0E
:10009000000000803F0011241FBECFEFCDBF11E054
:1000A000A0E0B1E0EEE5FAE102C005900D92A230C9
:1000B000B107D9F711E0A2E0B1E001C01D92A43070
:1000C000B107E1F70E9497000C942E0D0C940000EC
:1000D0001F920F920FB60F9211248F939F9381E07E
:1000E00080930201809103018F5F809303019091BF
:1000F0000001981730F41092030188B194E0892729
:1001000088B99F918F910F900FBE0F901F901895F7
:100110000E9488020E94DB023A9A82E084BD95E048
:1001200095BD9CE797BD80936E00789408954F929B
:100130005F926F927F928F929F92AF92BF92CF9277
:10014000DF92EF92FF920F931F93CF93DF93CDB780
:10015000DEB7EA970FB6F894DEBF0FBECDBF20E042
:1001600030E040E050E029833A834B835C8365E1D3
:10017000862E912C8C0E9D1E80E090E0A0E0B5E4D0
:10018000BF93AF939F938F9380E090E0A0E0B5EC96
:10019000BF93AF939F938F9380E090E0A1E6B4E488
:1001A000BF93AF939F938F935F934F933F932F93FF
:1001B0005C016D010F2EF0E0EF2EF0E0FF2EF0E875
:1001C0000F2FFFE31F2FF02D9E01275F3F4FAE0142
:1001D0004F5F5F4FBE016B5F7F4FC4010E9465019F
:1001E0008DEC9CECACE4B0E48D839E83AF83B88748
:1001F0000E9488008DB79EB740960FB6F8949EBFB8
:100200000FBE8DBF91E1492E512C4C0E5D1E8DE02D
:10021000682E712C6C0E7D1E809102018823E1F303
:1002200010920201B201C3010E942403E988FA88F6
:100230000B891C892D853E854F85588969817A8176
:100240008B819C810F2EFFE6AF2EF2E1BF2EF3E0F3
:10025000CF2EFCE3DF2EF02D0E942D0469837A83DC
:100260008B839C83C4010E94C901E980FA800B81C1
:100270001C8120E030E044E352E4C801B7010E9451
:10028000270B181654F020E030E044E352ECC8018C
:10029000B7010E94230B882354F480E090E0A0E093
:1002A000B0E089879A87AB87BC8786E001C08CE382
:1002B0008093000169857A858B859C850E94B50AAB
:1002C000DC01CB010E94A802A7CF8F929F92AF9230
:1002D000BF92CF92DF92EF92FF920F931F93CF9333
:1002E000DF93CDB7DEB74C01DB01F401718360838E
:1002F0005383428335832483FA01208131814281F3
:1003000053816D917D918D919C910E948609F4019C
:10031000668377838087918780E090E0A0E0B0E0FB
:1003200082879387A487B587E686F786008B118B33
:10033000A28AB38AC48AD58A8F859889A989BA89FD
:10034000868B978BA08FB18F8B899C89AD89BE8955
:10035000828F938FA48FB58F8F89988DA98DBA8D39
:10036000868F978FA0A3B1A38B8D9C8DAD8DBE8DF5
:1003700082A393A3A4A3B5A3DF91CF911F910F9163
:10038000FF90EF90DF90CF90BF90AF909F908F90B5
:1003900008956F927F928F929F92AF92BF92CF9269
:1003A000DF92EF92FF920F931F93CF93DF93EC01B5
:1003B0006E807F8088849984A881B981EA81FB81DD
:1003C00020813181428153816D917D918D919C91EC
:1003D0000E9486099B01AC016E837F838887998781
:1003E0006A857B858C859D850E9487097B018C01B0
:1003F0006A877B878C879D8720E030E048E453E460
:100400000E94270B18162CF480E090E0A8E4B3E4D7
:100410000EC020E030E048E453ECC801B7010E9470
:10042000230B882344F480E090E0A8E4B3EC8A87AF
:100430009B87AC87BD87AE80BF80C884D9842A895A
:100440003B894C895D89C601B5010E94630C7B0123
:100450008C012A853B854C855D856E897F89888DD9
:10046000998D0E94630C9B01AC01C801B7010E94E9
:1004700087097B018C01A4019301C601B5010E948B
:1004800086092A8D3B8D4C8D5D8D0E94630C9B01EE
:10049000AC01C801B7010E9487092E853F854889B4
:1004A00059890E94630C7B018C01AAA0BBA0CCA03F
:1004B000DDA0A60195010E94270B18161CF4EC8103
:1004C000FD810EC0AE8CBF8CC8A0D9A0A60195013D
:1004D000C801B7010E94230BEC81FD8188232CF415
:1004E000A082B182C282D38204C0E082F182028300
:1004F0001383DF91CF911F910F91FF90EF90DF90C9
:10050000CF90BF90AF909F908F907F906F90089505
:1005100084B1866084B98AB1806C8AB98BB18F73DB
:100520008BB982EA809380008AE18093810080E029
:1005300098E09093870080938600EAE8F0E01182CB
:100540001082808191819093890080938800089522
:100550009C0188E0213038071CF020E038E006C01C
:1005600088EF203038077CF037FD0FC08BB18F73D8
:100570008BB921153105B1F081E02039380794F4A9
:1005800020E931E00FC020E038EF8BB1806C8BB9EF
:10059000C9012EEF8137920714F080E79EEF9C018E
:1005A0002050384F309389002093880030938B007F
:1005B00020938A00089588B1806388B988EF80937A
:1005C000B90088E48093B80084EA8093BC008091ED
:1005D000BC0087FFFCCF8091B900887F883099F5F7
:1005E00080ED8093BB0084E88093BC008091BC00C8
:1005F00087FFFCCF8091B900887F883121F58BE699
:100600008093BB0084E88093BC008091BC0087FF8E
:10061000FCCF8091B900887F8832A9F41092BB008A
:1006200084E88093BC008091BC0087FFFCCF809160
:10063000B900887F883239F484E98093BC008091C6
:10064000BC0084FDFCCF08958F929F92AF92BF9221
:10065000CF92DF92EF92FF920F931F93CF93DF938E
:10066000CDB7DEB72E970FB6F894DEBF0FBECDBF65
:100670008C014B0184EA8093BC008091BC0087FF11
:10068000FCCF8091B900887F883009F070C080ED80
:100690008093BB0084E88093BC008091BC0087FFFE
:1006A000FCCF8091B900887F883109F060C08BE36E
:1006B0008093BB0084E88093BC008091BC0087FFDE
:1006C000FCCF8091B900887F883209F050C084EA5D
:1006D0008093BC008091BC0087FFFCCF8091B90063
:1006E000887F803109F043C081ED8093BB0084E8AE
:1006F0008093BC008091BC0087FFFCCF8091B90043
:10070000887F8034A1F520E030E0AE014F5F5F4F7D
:1007100014C084EC8093BC008091BC0087FFFCCFA8
:100720008091B9002F5F3F4F887F803501F5FA0136
:10073000E90FF11D8091BB008083922F2D30310590
:1007400041F784E88093BC008091BC0087FFFCCF18
:100750008091B900887F883551F48091BB008E87E5
:1007600084E98093BC008091BC0084FDFCCFEB84C5
:10077000FF24FE2CEE248C8590E0E82AF92A6D8176
:1007800070E0762F66272E8130E0622B732B88274E
:1007900077FD8095982F0E94E80A5B016C016B81C0
:1007A00070E0762F66272C8130E0622B732B882730
:1007B00077FD8095982F0E94E80AA60195010E9476
:1007C000CE0B5B016C01698170E0762F66272A8170
:1007D00030E0622B732B882777FD8095982F0E943D
:1007E000E80A9058A60195010E94FA0920E030E03D
:1007F00044E353E40E94630C2BED3FE049E450E4F2
:100800000E944D0AF80160837183828393830027DD
:10081000F7FC0095102FC801B7010E94E80A20E0FC
:1008200030E043E053E40E944D0AF4016083718399
:10083000828393832E960FB6F894DEBF0FBECDBF92
:10084000DF91CF911F910F91FF90EF90DF90CF90AC
:10085000BF90AF909F908F9008952F923F924F92AC
:100860005F926F927F928F929F92AF92BF92CF9240
:10087000DF92EF92FF920F931F933B014C01CA014D
:10088000B9012FE832EC45EF5CE30E94630C1B01D9
:100890002C01A6019501C801B7010E94630CA401B7
:1008A00093010E9487092CEE31E548E75FE30E943F
:1008B000630C9B01AC01C201B1010E9487091F9129
:1008C0000F91FF90EF90DF90CF90BF90AF909F90EF
:1008D0008F907F906F905F904F903F902F900895F2
:1008E000FC0180E090E0A0E0B0E080839183A283EF
:1008F000B38384839583A683B78380879187A287F8
:10090000B38720E030E04AE754E424873587468700
:100910005787808B918BA28BB38B848B958BA68B07
:10092000B78B808F918FA28FB38F248F358F468F97
:10093000578F80A391A3A2A3B3A384A395A3A6A337
:10094000B7A380A791A7A2A7B3A724A735A746A7B7
:1009500057A708952F923F924F925F926F927F9286
:100960008F929F92AF92BF92CF92DF92EF92FF92BF
:100970000F931F93CF93DF93CDB7DEB7C057D0400F
:100980000FB6F894DEBF0FBECDBF3C0149875A8732
:100990006B877C870D871E872F87388BFC0124810E
:1009A000358146815781C701B6010E94630CD3018E
:1009B0002D913D914D915C910E9487094B015C0105
:1009C000F3012085318542855385C701B6010E9418
:1009D000630C9B01AC01C501B4010E948609698BBF
:1009E0007A8B8B8B9C8BD3016D937D938D939C9392
:1009F0001397F301248D358D468D578DC701B601B0
:100A00000E94630C6D8B7E8B8F8B988FF3012089F6
:100A10003189428953890E9487094B015C01F301A6
:100A200020A531A542A553A5C701B6010E94630CBC
:100A3000698F7A8F8B8F9C8F9B01AC01C501B401AC
:100A40000E9486096D8F7E8F8F8F98A3F30120A15E
:100A500031A142A153A1C701B6010E94630C1B0141
:100A60002C01F30124893589468957890E94870919
:100A70004B015C01F30124A535A546A557A5C70187
:100A8000B6010E94630C69A37AA38BA39CA39B016C
:100A9000AC01C501B4010E9486096DA37EA38FA39A
:100AA00098A7F301208D318D428D538DC701B6017A
:100AB0000E94630CF30124853585468557850E9485
:100AC00087094B015C01F30124A135A146A157A17F
:100AD000C701B6010E94630C9B01AC01C501B401C2
:100AE0000E9486094B015C01A70196016D8D7E8DE8
:100AF0008F8D98A10E94630C9B01AC01C501B401CC
:100B00000E9487094B015C01A70196016DA17EA19E
:100B10008FA198A50E94630C9B01AC01C501B40193
:100B20000E94860920E030E040E251E40E948709FB
:100B300069A77AA78BA79CA7F30164877587868727
:100B400097878D8D9E8DAF8DB8A1808B918BA28B59
:100B5000B38B8DA19EA1AFA1B8A5848B958BA68BDD
:100B6000B78B208D318D428D538D6D897E898F8914
:100B7000988D0E948709A20191010E9486096DA7A4
:100B80007EA78FA798ABF301608F718F828F938FB1
:100B900020E030E048EC52E4648D758D868D978DB1
:100BA0000E94870969AB7AAB8BAB9CABF301648F76
:100BB000758F868F978F24A135A146A157A1698D86
:100BC0007A8D8B8D9C8D0E94870929A13AA14BA11A
:100BD0005CA10E9486096DAB7EAB8FAB98AFF30131
:100BE00064A375A386A397A32AE037ED43E25CE3F1
:100BF00064A575A586A597A50E94870969AF7AAFF8
:100C00008BAF9CAFF30164A775A786A797A7298927
:100C10003A894B895C8969857A858B859C850E9498
:100C2000860921966CAF7DAF8EAF9FAF2197F30100
:100C300024813581468157816D857E858F85988990
:100C40000E94860925966CAF7DAF8EAF9FAF25972A
:100C500020E030E04AEF55E469A57AA58BA59CA574
:100C60000E94870929966CAF7DAF8EAF9FAF299701
:100C700020E030E04AE754E469A97AA98BA99CA94D
:100C80000E9487091B012C012DA53EA54FA558A93F
:100C90006D8D7E8D8F8D98A10E94630C2D966CAF0B
:100CA0007DAF8EAF9FAF2D97A201910129966CADBC
:100CB0007DAD8EAD9FAD29970E94630C2D962CAD16
:100CC0003DAD4EAD5FAD2D970E9486099B01AC01F5
:100CD00060E070E080E89FE30E944D0A5B016C01D8
:100CE000A201910169A57AA58BA59CA50E94630C20
:100CF0002D962CAD3DAD4EAD5FAD2D970E94860972
:100D0000A60195010E94630C61966CAF7DAF8EAF1A
:100D10009FAF619729962CAD3DAD4EAD5FAD299744
:100D20006D8D7E8D8F8D98A10E94630C7B018C014F
:100D30002D8D3E8D4F8D58A169A57AA58BA59CA5BB
:100D40000E94630C9B01AC01C801B7010E94860997
:100D5000A60195010E94630C65966CAF7DAF8EAFC6
:100D60009FAF6597A20191016DA57EA58FA598A95A
:100D70000E94630C7B018C012DA53EA54FA558A9AF
:100D800069A97AA98BA99CA90E94630C9B01AC015B
:100D9000C801B7010E948609A60195010E94630C53
:100DA00069966CAF7DAF8EAF9FAF699729962CADDA
:100DB0003DAD4EAD5FAD299769A97AA98BA99CA9D4
:100DC0000E94630C2D962CAD3DAD4EAD5FAD2D97C1
:100DD0000E948609A60195010E94630C6D966CAF76
:100DE0007DAF8EAF9FAF6D97F30180A591A5A2A5B2
:100DF000B3A58D839E83AF83B887A20191016DA9AE
:100E00007EA98FA998AD0E94630C7B018C012DA552
:100E10003EA54FA558A96D817E818F8198850E943E
:100E2000630C9B01AC01C801B7010E948609A601B1
:100E300095010E94630CA1966CAF7DAF8EAF9FAF02
:100E4000A19729962CAD3DAD4EAD5FAD29976D8133
:100E50007E818F8198850E94630C7B018C012D8D92
:100E60003E8D4F8D58A16DA97EA98FA998AD0E9486
:100E7000630C9B01AC01C801B7010E948609A60161
:100E800095010E94630C5B016C0121962CAD3DAD78
:100E90004EAD5FAD219761966CAD7DAD8EAD9FADD2
:100EA00061970E94630C9B01AC0169897A898B89E7
:100EB0009C890E9487097B018C0125962CAD3DAD54
:100EC0004EAD5FAD259765966CAD7DAD8EAD9FAD9A
:100ED00065970E94630C9B01AC01C801B7010E9499
:100EE0008709A5966CAF7DAF8EAF9FAFA597D30155
:100EF0006D937D938D939C93139721962CAD3DAD6F
:100F00004EAD5FAD219769966CAD7DAD8EAD9FAD59
:100F100069970E94630CF3012481358146815781D2
:100F20000E9487097B018C0125962CAD3DAD4EAD0D
:100F30005FAD25976D966CAD7DAD8EAD9FAD6D9718
:100F40000E94630C9B01AC01C801B7010E94870994
:100F5000F301648375838683978321962CAD3DAD21
:100F60004EAD5FAD2197A1966CAD7DAD8EAD9FADC1
:100F7000A1970E94630CF30120853185428553853A
:100F80000E9487097B018C0125962CAD3DAD4EADAD
:100F90005FAD2597C601B5010E94630C9B01AC01B2
:100FA000C801B7010E948709F301608771878287B2
:100FB000938761962CAD3DAD4EAD5FAD619760E01E
:100FC00070E080E89FE30E9486091B012C01F30179
:100FD00080A191A1A2A1B3A189839A83AB83BC8391
:100FE0006D962CAD3DAD4EAD5FAD6D9760E070E0A0
:100FF00080E89FE30E948609A9966CAF7DAF8EAF13
:101000009FAFA997A60195016DA57EA58FA598A96B
:101010000E94630C9B01AC016DA97EA98FA998ADBC
:101020000E9486097B018C01A1962CAD3DAD4EAD91
:101030005FADA19769A57AA58BA59CA50E94630CBD
:101040009B01AC01C801B7010E948609AD966CAF47
:101050007DAF8EAF9FAFAD97A601950169A97AA923
:101060008BA99CA90E94630C9B01AC016D817E81C0
:101070008F8198850E9486097B018C01A1962CADF9
:101080003DAD4EAD5FADA1976D8D7E8D8F8D98A1DD
:101090000E94630C9B01AC01C801B7010E94860944
:1010A000E1966CAF7DAF8EAF9FAFE197A601950142
:1010B00069817A818B819C810E94630C9B01AC01C8
:1010C00069AD7AAD8BAD9CAD0E9486097B018C0128
:1010D000A1962CAD3DAD4EAD5FADA1976DA17EA1AA
:1010E0008FA198A50E94630C9B01AC01C801B701B8
:1010F0000E9486095B016C01A201910169A57AA594
:101100008BA59CA50E94630C7B018C0165962CAD80
:101110003DAD4EAD5FAD65976DA57EA58FA598A938
:101120000E94630C9B01AC01C801B7010E948609B3
:10113000F3016487758786879787A20191016D8D7A
:101140007E8D8F8D98A10E94630C7B018C0165962A
:101150002CAD3DAD4EAD5FAD659769A97AA98BA960
:101160009CA90E94630C9B01AC01C801B7010E94BD
:101170008609F301608B718B828B938BA2019101A5
:101180006DA17EA18FA198A50E94630C7B018C01AB
:1011900065962CAD3DAD4EAD5FAD659769817A81A9
:1011A0008B819C810E94630C9B01AC01C801B7013B
:1011B0000E948609F301648B758B868B978BA996A9
:1011C0002CAD3DAD4EAD5FADA9976DA57EA58FA5AC
:1011D00098A90E94630C7B018C0169962CAD3DADF2
:1011E0004EAD5FAD699769A57AA58BA59CA50E94B8
:1011F000630C9B01AC01C801B7010E948609F30191
:10120000608F718F828F938FA9962CAD3DAD4EADBF
:101210005FADA99769A97AA98BA99CA90E94630CC3
:101220007B018C0169962CAD3DAD4EAD5FAD6997EC
:101230006D8D7E8D8F8D98A10E94630C9B01AC01FA
:10124000C801B7010E948609F301648F758F868FEC
:10125000978FA9962CAD3DAD4EAD5FADA997698135
:101260007A818B819C810E94630C7B018C01699641
:101270002CAD3DAD4EAD5FAD69976DA17EA18FA147
:1012800098A50E94630C9B01AC01C801B7010E94A4
:101290008609F30160A371A382A393A3AD968CADDD
:1012A0009DADAEADBFADAD9784A395A3A6A3B7A3E7
:1012B000E1968CAD9DADAEADBFADE19780A791A796
:1012C000A2A7B3A7A4A6B5A6C6A6D7A6A5966CAD99
:1012D0007DAD8EAD9FADA597C059DF4F0FB6F89489
:1012E000DEBF0FBECDBFDF91CF911F910F91FF9059
:1012F000EF90DF90CF90BF90AF909F908F907F90B6
:101300006F905F904F903F902F9008955058BB275B
:10131000AA270ED000C2F1D130F0F6D120F031F47E
:101320009F3F11F41EF4C1C10EF4E095E7FBB7C175
:10133000E92F02D280F3BA17620773078407950773
:1013400018F071F49EF51AC20EF4E0950B2EBA2F28
:10135000A02D0B01B90190010C01CA01A0011124BB
:10136000FF27591B99F0593F50F4503E68F11A1667
:10137000F040A22F232F342F4427585FF3CF4695F8
:1013800037952795A795F0405395C9F77EF41F161A
:10139000BA0B620B730B840BBAF09150A1F0FF0FE4
:1013A000BB1F661F771F881FC2F70EC0BA0F621FD0
:1013B000731F841F48F4879577956795B795F795C0
:1013C0009E3F08F0B3CF9395880F08F09927EE0F52
:1013D00097958795089591D158F080E891E009F4A8
:1013E0009EEF92D128F040E851E059F45EEF09C039
:1013F0005CC1C4C1E92FE0789FD168F3092E052AAA
:10140000C1F3261737074807590738F00E2E07F89B
:10141000E02569F0E025E0640AC0EF6307F8009476
:1014200007FADB01B9019D01DC01CA01AD01EF93AF
:1014300043D071D10AD05F91552331F02BED3FE0BD
:1014400049E450FD49EC63CF0895DF93DD27B92FC0
:10145000BF7740E85FE31616170648075B0710F4EE
:10146000D92FF4D19F938F937F936F93DDD2E8E6CA
:10147000F0E01ED150D12F913F914F915F912FD22B
:10148000DD2349F09058A2EA2AED3FE049EC5FE302
:10149000D0785D274DDFDF913EC10CD03CC134D107
:1014A00040F02BD130F021F45F3F19F0F8C051111A
:1014B00066C1FBC041D198F39923C9F35523B1F319
:1014C000951B550BBB27AA2762177307840738F0B3
:1014D0009F5F5F4F220F331F441FAA1FA9F333D012
:1014E0000E2E3AF0E0E830D091505040E695001CC6
:1014F000CAF729D0FE2F27D0660F771F881FBB1F82
:10150000261737074807AB07B0E809F0BB0B802D5B
:10151000BF01FF2793585F4F2AF09E3F510568F0A7
:10152000BEC02DC15F3FECF3983EDCF38695779506
:101530006795B795F7959F5FC9F7880F911D9695A9
:10154000879597F90895E1E0660F771F881FBB1F05
:10155000621773078407BA0720F0621B730B840BB2
:10156000BA0BEE1F88F7E095089504D06894B11186
:1015700006C10895E9D088F09F5790F0B92F9927B8
:10158000B751A0F0D1F0660F771F881F991F1AF08E
:10159000BA95C9F712C0B13081F0F0D0B1E008952A
:1015A000EDC0672F782F8827B85F39F0B93FCCF3AB
:1015B000869577956795B395D9F73EF49095809584
:1015C000709561957F4F8F4F9F4F0895E89409C0A4
:1015D00097FB3EF490958095709561957F4F8F4F66
:1015E0009F4F9923A9F0F92F96E9BB279395F6957C
:1015F000879577956795B795F111F8CFFAF4BB0FFA
:1016000011F460FF1BC06F5F7F4F8F4F9F4F16C05D
:10161000882311F096E911C0772321F09EE8872FE7
:10162000762F05C0662371F096E8862F70E060E0A3
:101630002AF09A95660F771F881FDAF7880F96951C
:10164000879597F9089507D008F481E0089503D0AD
:1016500008F48FEF0895990F0008550FAA0BE0E8E2
:10166000FEEF16161706E807F907C0F01216130664
:10167000E407F50798F0621B730B840B950B39F4A4
:101680000A2661F0232B242B252B21F408950A260A
:1016900009F4A140A6958FEF811D811D089597F94A
:1016A0009F6780E870E060E008959FEF80EC089508
:1016B000DF93CF931F930F93FF92EF92DF927B0103
:1016C0008C01689405C0DA2EEF0109D1FE01E8947F
:1016D000A5912591359145915591AEF3EF0128DE05
:1016E000FE019701A801DA9479F7DF90EF90FF905F
:1016F0000F911F91CF91DF91089500240A9416163F
:10170000170618060906089500240A9412161306EF
:10171000140605060895092E0394000C11F488237D
:1017200052F0BB0F40F4BF2B11F460FF04C06F5F99
:101730007F4F8F4F9F4F089557FD9058440F551F6F
:1017400059F05F3F71F04795880F97FB991F61F043
:101750009F3F79F087950895121613061406551FBA
:10176000F2CF4695F1DF08C0161617061806991F26
:10177000F1CF86957105610508940895E894BB271B
:1017800066277727CB0197F90895B7DF19F0BCDFFB
:1017900009F08BCF84CFB901CA0149C19F775F7728
:1017A000CBDF98F39923B9F35523B9F3FF279517A6
:1017B00058F4E52FE91BED3070F75E3B10F0F1E4D3
:1017C0001CC09034E0F40AC0E92FE51BED3028F787
:1017D0009E3B10F0F1E411C0503488F4F9EA8823FC
:1017E0002AF09A95660F771F881FDAF744232AF0AC
:1017F0005A95220F331F441FDAF79F1B5F1BFF937D
:101800001F930F93FF92EF9279018A01BB27AB2FB1
:101810009B01AC0166D09701A801BF937B018C01AD
:10182000AA27BA2FB901CA015CD0AF919701A801CC
:10183000EF90FF900F911F917BDD6DDFABD04F914B
:1018400040FF0895552747FD509509C09B01AC0105
:1018500060E070E080E89FE320CE21CFE8C074DF35
:10186000E8F39923D9F3940F511DBBF391505040E5
:1018700094F059F0882332F0660F771F881F91503B
:101880005040C1F79E3F510544F7880F911D969532
:10189000879597F908955F3FACF0983E9CF0BB2781
:1018A000869577956795B79508F4B1609395C1F7DC
:1018B000BB0F58F711F460FFE8CF6F5F7F4F8F4F7A
:1018C0009F4FE3CF5CCF0BD026CF17DF28F01CDF74
:1018D00018F0952309F0E3CEE8CE112450CF2CDF89
:1018E000A0F3959FD1F3950F50E0551F629FF00133
:1018F000729FBB27F00DB11D639FAA27F00DB11D8C
:10190000AA1F649F6627B00DA11D661F829F222714
:10191000B00DA11D621F739FB00DA11D621F839F9B
:10192000A00D611D221F749F3327A00D611D231F71
:10193000849F600D211D822F762F6A2F11249F57BF
:1019400050408AF0E1F088234AF0EE0FFF1FBB1FE2
:10195000661F771F881F91505040A9F79E3F510581
:1019600070F09DCE0CCF5F3FECF3983EDCF3869594
:1019700077956795B795F795E7959F5FC1F7FE2B2C
:10198000880F911D9695879597F9089511F40EF497
:101990008CCE4DC0D9DED0F39923D9F3CEF39F5727
:1019A000550B87FF54D056959795B0E020F4660FFD
:1019B000771F881FBB1F1F930F9300249001A00166
:1019C0008001F001A0E80E0F1F1F0A1E511D601BB1
:1019D000710B8009B50B48F4600F711F801DB51F96
:1019E0000E1B1F0B0A0A510907C02E0F3F1F4A1F6B
:1019F0000E0F1F1F0A1E511D660F771F881FBB1F6A
:101A0000A695F795E795F8F60617170708065B07FA
:101A1000211D311D411D0F911F91B901842F915836
:101A2000880F9695879508959B01AC014CCF9F3FF9
:101A300049F0915028F4869577956795B7959F5F03
:101A400080389F4F880F9695879597F90895915004
:0E1A50005040660F771F881FD2F70895FFCF12
:021A5E003C004A
:00000001FF
