:020000021000EC
:10E000000C9446F00C9465F00C9465F00C9465F05B
:10E010000C9465F00C9465F00C9465F00C9465F02C
:10E020000C9465F00C9465F00C9465F00C9465F01C
:10E030000C9465F00C9465F00C9465F00C9465F00C
:10E040000C9465F00C9465F00C9465F00C9465F0FC
:10E050000C9465F00C9465F00C9465F00C9465F0EC
:10E060000C9465F00C9465F00C9465F00C9465F0DC
:10E070000C9465F00C9465F00C9465F00C9465F0CC
:10E080000C9465F00C9465F00C9465F011241FBE9F
:10E09000CFEFD0E1DEBFCDBF11E0A0E0B1E0E8E618
:10E0A000F2EE01E00BBF02C007900D92A030B10765
:10E0B000D9F711E0A0E0B1E001C01D92A030B10796
:10E0C000E1F70E9467F00C9433F10C9400F08F920A
:10E0D0009F92AF92BF92CF92DF92EF92FF920F93F7
:10E0E0001F93CF93DF93CDB7DEB7C050D2400FB6AA
:10E0F000F894DEBF0FBECDBF80E187BB88E082B958
:10E100001092640020E030E0AE014F5F5F4FD90114
:10E110000E942BF1802DFA01E20FF31F80832F5F05
:10E120003F4F82E02030380791F7AA24BB246501D5
:10E130004E010894811C911C8091680080FDFCCFE9
:10E14000E199FECF83E0F501C0925B008093680007
:10E15000E895A0E0B0E08091680080FDFCCFE199F7
:10E16000FECF7D0100E010E0A80197012A0D3B1DC4
:10E170004C1D5D1D61E02F5F3F4F4F4F5F4FF4011E
:10E18000E20FF31F2150304040405040808190E02A
:10E19000982F8827F401E20FF31F2081820F911D31
:10E1A0000C01F70100935B0060936800E89511246F
:10E1B0001296AF3FB10579F270F28091680080FD50
:10E1C000FCCFE199FECF85E0F501C0925B00809322
:10E1D0006800E89580E091E0A0E0B0E0A80EB91EEC
:10E1E000CA1EDB1E90E0A91692E0B90690E0C906AF
:10E1F00090E0D90608F4A0CF08C083B198E0892741
:10E2000083B980E49FE10197F1F78091630080FF7B
:10E21000F4CF8091680080FDFCCFE199FECF81E1D1
:10E2200080936800E8950C94000080E090E0C05076
:10E23000DE4F0FB6F894DEBF0FBECDBFDF91CF919A
:10E240001F910F91FF90EF90DF90CF90BF90AF9014
:10E250009F908F900895E199FECFBFBBAEBBE09A2F
:08E2600011960DB20895FFCFE5
:040000031000E00009
:00000001FF
