:100000000C942E010C9449010C9449010C94580154
:100010000C9449010C9449010C9449010C94490138
:100020000C9449010C9449010C9449010C94490128
:100030000C9449010C9449010C946E010C944901F3
:100040000C9449010C9449010C9449010C94490108
:100050000C9449010C9449010C9449010C944901F8
:100060000C9449010C944901000000000000004F6D
:1000700000000003000300143E143E14242A7F2ACB
:1000800012631308646336495522500000070000CC
:10009000001C2241000041221C000A041F040A0423
:1000A000041F0404503000000008080808086060BD
:1000B00000000000601C03003E4149413E00027FF9
:1000C0000000466151494621494D4B311814127FB9
:1000D000104F494949313E514949320101710D03DF
:1000E0003649494936264949493E00333300000024
:1000F0005333000000081422411414141414412234
:1001000014080006015109063E4149151E781611D2
:1001100016787F494949363E414141227F4141415C
:100120003E7F494949497F090909093E4141497BC7
:100130007F0808087F00007F0000384040413F7F73
:10014000080814637F404040407F0618067F7F0602
:1001500018607F3E4141413E7F090909063E4151F9
:10016000215E7F09192946264949493201017F014B
:10017000013F4040407F0F3040300F1F601C601F28
:100180006314081463030478040361514945430070
:100190007F410000031C60000000417F00000C0252
:1001A00001020C4040404040000102040020545431
:1001B00054787F484444383844444444384444489C
:1001C0007F3854545418087E0909000C5252543E8A
:1001D0007F0804047800007D000000403D00007F9F
:1001E0001028440000003F40007C041804787C087C
:1001F00004047838444444387F1211110E0E111152
:10020000127F007C0804044854545424043E44449F
:10021000003C4040207C1C2040201C1C6018601CBE
:10022000442810284446281008064464544C4400CE
:100230000877410000007F000000417708001008A7
:10024000181008AED580A83FD300408D142000A11F
:10025000C8DA1281CFD9F1DB40A4A6AF11241FBEAA
:10026000CFEFCDBF11E0A0E0B1E0E8E2F7E002C0DF
:1002700005900D92AA30B107D9F715E0AAE0B1E0D8
:1002800001C01D92A131B107E1F70E94B0010C94A9
:1002900093030C94000080917A00806480937A002C
:1002A00080917A0086FDFCCF8091790090E00895DE
:1002B0001F920F920FB60F9211248F93189B07C0B5
:1002C00080910F058F5F80930F05419A01C041987F
:1002D0008F910F900FBE0F901F9018951F920F9245
:1002E0000FB60F9211242F938F939F9380910A0141
:1002F00090910B01019690930B0180930A01825E0D
:10030000944071F410920B0110920A0180910F0534
:100310002CE0829FC00111248093100510920F05DC
:100320009F918F912F910F900FBE0F901F90189556
:100330000E94490392E097B985E680937C0087E8A4
:1003400080937A0081E08093680080936B0094BD75
:1003500084E085BD89EF87BD90936E007894089501
:100360004F925F926F927F928F929F92AF92BF92C5
:10037000CF92DF92EF92FF920F931F93CF93DF9371
:10038000CDB7DEB7C058D0400FB6F894DEBF0FBE71
:10039000CDBF20E030E0AE014F5F5F4F05C0FA01F6
:1003A000E80FF11D88E08083822F2F5F3F4F2138B7
:1003B0003105A9F70E9498012E010894411C511C97
:1003C00020E8C22ED12CCC0EDD1E90E0692E91E0EB
:1003D000792E86E0882E81E0982E56010E944B01EE
:1003E000E82E0E9441038201F42C802F8F19F8011E
:1003F000618161938F010E9450020C151D05A9F7C0
:100400008E2D883308F087E31FE3181B612F8FE7D9
:100410000E94500260E080E00E94A002C3010E949E
:10042000EF0280911005833350F0809110058639DA
:1004300030F48091100590E00E94050303C0C401D0
:100440000E94EF02F50110830E94350280E29EE4D3
:100450000197F1F7C3CF662311F0299801C0299ABB
:100460008EBD0DB407FEFDCF0895CF93DF9361E0FD
:1004700080E00E942B0261E080E10E942B0261E09B
:1004800080E40E942B02CDE0D1E060E089910E94DF
:100490002B0285E0CD30D807C1F7DF91CF910895C9
:1004A00087FD1BC06034C8F4E62FE695E695E69517
:1004B000F0E0F695FE2FEE27F795E795E80FF11D92
:1004C000E35FFE4F677081E090E002C0880F991FE4
:1004D0006A95E2F72081282B2083089587FD1CC0B0
:1004E0006034D0F4E62FE695E695E695F0E0F695D3
:1004F000FE2FEE27F795E795E80FF11DE35FFE4F1E
:10050000677081E090E002C0880F991F6A95E2F75A
:100510008095208128232083089580910C018823D1
:1005200039F061E086EA0E942B0210920C010895D6
:1005300061E087EA0E942B0281E080930C0108951C
:100540008C3708F08BE780930D05693308F068E37A
:1005500060930E050895582F40910E0590910D055A
:10056000483018F4292F30E00DC0842F86958695E9
:100570008695282F30E03695322F222737952795FC
:10058000290F311D85E0589FF0011124E853F040F8
:10059000D901A35FBE4F90E084918D939F5F319608
:1005A0009530D1F780910D058A5F80930D058C37CA
:1005B00070F0483338F080E880930D0588E380932D
:1005C0000E05089510920D05485F40930E05809129
:1005D0000E05893318F088E380930E0508950F9374
:1005E0001F93CF93DF938C01C0E0D0E002C00E9444
:1005F000AB02F801EC0FF11D808121968823B9F739
:10060000DF91CF911F910F9108950F931F93CF9377
:10061000DF93EC01009721F480E30E94AB022CC031
:1006200097FF06C0D095C195DF4F8DE20E94AB02C7
:1006300001E010E0C801880F991F73E0000F111F3F
:100640007A95E1F7080F191FC017D1079CF7C80169
:100650006AE070E00E946C038B01CE010E946C0383
:10066000CB01805D0E94AB02CE01B8010E946C03F9
:10067000EC01023011055CF7DF91CF911F910F91D2
:10068000089580E094E0EDE0F1E011920197E9F740
:100690000895CF93DF9384B18E6284B98CE58CBDCD
:1006A0002A9A80E49FE1FC013197F1F72A98FC0136
:1006B0003197F1F72A9A0197F1F7C3E4D2E0FE01EE
:1006C000849161E00E942B022196F2E0CC35DF0795
:1006D000B1F7DF91CF91089597FB092E07260AD035
:1006E00077FD04D00CD006D000201AF470956195E7
:1006F0007F4F0895F6F7909581959F4F0895AA1B17
:10070000BB1B51E107C0AA1FBB1FA617B70710F0FC
:10071000A61BB70B881F991F5A95A9F7809590952E
:08072000BC01CD010895FFCFDB
:0A07280042504D3A20003F3F3F00D1
:00000001FF
